:020000040800F2
:1000000018920020DD010008BD4D0008792F00087E
:1000100019470008C10D0008855C000800000000B9
:100020000000000000000000000000004501000882
:10003000AB0E00080000000089010008E55300082D
:10004000F7010008F7010008F7010008F7010008B0
:10005000F7010008F7010008F7010008F7010008A0
:10006000F7010008F7010008F7010008F701000890
:10007000F7010008750E0008F7010008F7010008F5
:10008000F7010008F7010008F7010008F701000870
:10009000F7010008F7010008F7010008F701000860
:1000A000F7010008F7010008F7010008F701000850
:1000B000F7010008F7010008F7010008F701000840
:1000C000F7010008F7010008F7010008F701000830
:1000D000F7010008115A0008F70100085D5A0008EE
:1000E000F7010008F7010008F7010008F701000810
:1000F000F7010008F7010008F7010008F701000800
:10010000F7010008F7010008F7010008F7010008EF
:10011000F7010008F7010008F7010008F7010008DF
:10012000F7010008F7010008F7010008F7010008CF
:10013000DFF80CD000F0EAFC00480047516C0008E2
:1001400018920020224B19680868B0E8F00F80F37D
:100150000988BFF36F8F4FF0000080F311884EF0D5
:100160000D0E70470000000006480068006880F32C
:10017000088862B661B6BFF34F8FBFF36F8F00DFA1
:1001800000BF00BF08ED00E0EFF30980BFF36F8F01
:100190000F4B1A6820E9F00F106008B54FF05000BF
:1001A00080F31188BFF34F8FBFF36F8F0AF060FBAE
:1001B0004FF0000080F31188BDE808401968086816
:1001C000B0E8F00F80F30988BFF36F8F704700BF6E
:1001D00028010020EFF305807047000006488047A3
:1001E00006480047FEE7FEE7FEE7FEE7FEE7FEE71C
:1001F000FEE7FEE7FEE7FEE7755400083101000860
:10020000202A04DB203A21FA02F00021704721FA6B
:1002100002F3D040C2F120029140084319467047D2
:1002200000487047ACBC0008A0F14101192900D872
:100230002030704740EA01039B0703D009E008C95A
:10024000121F08C0042AFAD203E011F8013B00F89B
:10025000013B521EF9D27047D2B201E000F8012BE7
:10026000491EFBD270470022F6E710B513460A4636
:1002700004461946FFF7F0FF204610BD421E12F853
:10028000013F002BFBD111F8013B02F8013B002B91
:10029000F9D1704730B505462A460B4612F8010BD6
:1002A00013F8014B08B1A042F8D01CB1002802D0CD
:1002B0006D1CF1E7284630BD10B5044604E00B780C
:1002C00000F8013B03B1491C521EF8D2204610BD74
:1002D000CAB2401E10F8011F8A4202D00029F9D18B
:1002E00000207047421C10F8011B0029FBD1801A26
:1002F0007047034611F8012B00F8012B002AF9D1B1
:100300001846704730B505460020034600E05B1CE8
:10031000934205D2EC5CC85C201A01D1002CF6D1C6
:1003200030BD70B5064605F015FD046805460A2285
:100330000021304600F0EEFA2C6070BD30B480EA47
:10034000010202F0004530F0004221F0004013D0DD
:1003500090B1C30DD40DC2F31601C0F31600E41A18
:1003600041F4000140F400027D34914201D3641C49
:1003700000E04900002C02DA30BC002070474FF446
:1003800000000023914201D3891A034340084FEA39
:100390004101F7D151B1914202D14FF0004105E046
:1003A00002D24FF0010101E06FF0010103EBC450F4
:1003B000284430BC00F0E6BA2DE9FE4F804681EAC1
:1003C0000300C00F0C46009021F0004123F00045CF
:1003D000B8EB0200A94105D24046214690461C4692
:1003E0000B46024623F00040104347D0270DC7F3C9
:1003F0000A00C3F30A510290401A019040286BDAB8
:10040000C3F3130040F4801B0098924620B10023F0
:10041000D2EB030A63EB0B0B01985946C0F1400283
:10042000504600F056FA06460D4650465946019A87
:1004300000F05EFA10EB08006141002487EA1152D7
:1004400084EAE7731A4340D0009A62B3019A012A02
:100450004FEA075215DC001B61EB02014FF000422E
:1004600002EA0752CDE90042001C41F580113246F4
:100470002B4600F0CDFA03B0BDE8F08F4046214690
:10048000F9E7001B61EB0201001C41F58013001825
:100490005B412018A2F5001747EB030140EAD57035
:1004A000B6196D4111E06D084FEA360645EAC07590
:1004B0004FEA0752001B61EB0201001C41F580115D
:1004C00049084FEA30000019514132462B4603B02B
:1004D000BDE8F04F00F08DBA0098012240000023E3
:1004E000D0EB020263EBE073009821464FEAE07420
:1004F000B8EB000061EB0401E9E783F000435BE740
:1005000081F0004158E72DE9FE4F81EA030404F031
:10051000004421F0004100944FF0000B23F0004311
:1005200050EA01045ED052EA03045BD0C3F30A54DC
:10053000C1F30A552C44A4F2F3340194A0FB0254F5
:10054000C1F3130141F48011C3F3130343F4801387
:1005500001FB024400FB034E840A970A44EA8154DB
:1005600047EA8357A4FB076802958D0A05FB0785B8
:100570004FEA932C04FB0C542705029D4FEA0658C2
:1005800047EA1637B5EB08056EEB070C870E920E9F
:1005900047EA811742EA8312A7FB0201B6EB0B017F
:1005A00064EB00042B0D43EA0C335E1844EB1C5043
:1005B000DA465146E7FB0201C5F313044FEA0B3359
:1005C00043EA14534FEA0432019C43EA0603A4F1C0
:1005D0000C040294009CCDE900B400F019FA03B0B9
:1005E000BDE8F08F00200146F9E72DE9F04D81EAE2
:1005F000030404F0004B21F0004514464FF0000ABC
:1006000023F0004150EA050220D054EA01021DD037
:10061000C5F30A570246C5F31303C1F31300C1F330
:100620000A5640F4801543F48013A7EB0608101B0C
:10063000D64608F2FD3873EB050002D308F1010835
:1006400001E092185B41B8F1000F03DA0020014687
:10065000BDE8F08D00204FF48011064684460EE080
:10066000171B73EB050705D3121B63EB050306434A
:100670004CEA010C49084FEA300092185B4150EAFD
:100680000107EDD152EA030012D082EA040083EAA6
:100690000501084305D0101BAB4106D201220023FF
:1006A00006E000224FF0004302E06FF00102531019
:1006B0001AEB06004CEB085110EB0A0041EB0B0162
:1006C000BDE8F04D00F095B9C10F80EAE070084434
:1006D000CA079623002100F05EB996230022114636
:1006E00000F059B90EB5C10F80EAE0700844CA079E
:1006F000002140F233438DE80E000A460B4600F01D
:1007000087F903B000BD0EB540F2334102910021DC
:10071000CDE900110A460B4600F07AF903B000BD9E
:1007200020F00040C10DC0F3160040F400007F2906
:1007300001DA00207047962903DCC1F19601C84018
:10074000704796398840704770B5C1F30A5201F07E
:1007500000450024C1F3130140F2FF3341F480113E
:100760009A4201DA002070BD40F233439A42A2F26D
:10077000334203DC5242FFF743FD00E090402C433C
:10078000F1D0404270BD00F0004230F000400AD08D
:10079000C10D01F56071C0F3160042EA0151C208B3
:1007A00040071143704700200146704730B5041ED2
:1007B00071F1000404DB4FF00044404264EB01019E
:1007C000141E73F1000405DB1C464FF00043524237
:1007D00063EB04038B4208BF824230BD30B5041E78
:1007E00071F1000404DB4FF00044404264EB01016E
:1007F000141E73F1000405DB1C464FF00043524207
:1008000063EB0403994208BF904230BD01F00043FE
:1008100030B421F0004150EA010206D00A0DA2F5E1
:100820006072C1F31301002A02DC30BC0020704763
:10083000440F44EAC104C100E01830BC00EBC250D0
:1008400000F0A0B830B50B4601460020202201245C
:1008500009E021FA02F59D4205D303FA02F5491B8E
:1008600004FA02F52844151EA2F10102F1DC30BDA4
:100870002DE9F05F0546002092469B4688460646D5
:10088000814640241BE02846414647462246FFF762
:10089000B7FC53465A46C01A914110D31146184628
:1008A000224600F016F82D1A67EB01084F46224643
:1008B0000120002100F00DF817EB00094E41201E29
:1008C000A4F10104DFDC484631462A464346BDE830
:1008D000F09F202A04DB203A00FA02F10020704742
:1008E0009140C2F1200320FA03F31943904070476E
:1008F000202A06DBCB17203A41FA02F043EAE073E4
:1009000006E041FA02F3D040C2F1200291400843D0
:10091000194670472DE9F04791460F468046044638
:10092000002614F8015B2DB1FFF77AFC0068405DEA
:10093000C007F6D12B2D02D02D2D18D0641E4A46AB
:100940003946204600F0F4F827B13968A14201D1B8
:10095000C7F8008071054FF002040BD54042002813
:1009600003DD05F0F7F90460A007BDE8F08746F461
:100970008066E4E70028F8DA05F0ECF904606FF02F
:100980000040F2E70029A8BF7047401C490008BF9B
:1009900020F00100704710B4B0FA80FC00FA0CF0AF
:1009A00050EA010404BF10BC704749B1CCF12004E7
:1009B00021FA04F411FA0CF118BF01212143084374
:1009C000A3EB0C01CB1D4FEA00614FEA102042BFA0
:1009D000002010BC704700EBC35010440029A4BF96
:1009E00010BC7047401C490008BF20F0010010BC3B
:1009F000704710B5141E73F1000408DA401C41F171
:100A0000000192185B411A4301D120F0010010BD92
:100A10002DE9F04D92469B4611B1B1FA81F202E008
:100A2000B0FA80F220329046FFF753FF04460F469B
:100A300040EA0A0041EA0B0153465A46084313D0E4
:100A4000114653EA010019D0C8F140025046FFF7A1
:100A5000D7FB05460E46504659464246FFF739FF3A
:100A6000084305D0012004E020463946BDE8F08D5A
:100A70000020054346EAE0762C4337430A98630595
:100A8000E40AA0EB08000022FD0A44EA47540A30B9
:100A900002D500200146E9E7010510196941DDE9A9
:100AA000084500196941BDE8F04DA2E770B521F095
:100AB000004303430CD0C1F30A550024D5EB0405D1
:100AC00064EB0403D617AD1AB34102DB00200146E4
:100AD00070BD201841EB025170BDC1F30A52C1F341
:100AE000130140F2FF3341F480119A4202DA0020F0
:100AF0000146704740F233439A42A2F2334202DC8D
:100B00005242FFF77DBBFFF7E4BE0000064C074DE5
:100B100006E0E06840F0010394E8070098471034CD
:100B2000AC42F6D3FFF708FBFCBD00081CBE000872
:100B30002DE9F05F82460078002715468B460AF1C2
:100B40000104B946302801D09DB113E014F8010B1F
:100B50000127782803D0582801D045B10AE00DB10B
:100B6000102D07D10027102514F8010B02E00825ED
:100B700000E00A250026B0460EE005FB080005FB54
:100B800006F1012701EB10461FFA80F8B6F5803F09
:100B900000D3B94614F8010B294600F069F8002883
:100BA000EBDABBF1000F05D00FB1641E00E0544634
:100BB000CBF80040B9F1000F06D005F0CBF80221C8
:100BC0000160C81EBDE8F09F48EA0640FAE72DE93B
:100BD000F04D00231A461B1A8A4103DB0020014610
:100BE000BDE8F08DC1F30A52C1F3130141F4801541
:100BF0004FF0000BD10702D100186D41521E0027A3
:100C0000044640F2FF11384601EB620A3E46804638
:100C1000024600204FF48011FFF7F2FAC219714129
:100C2000BB1846EB0100B4EB030C75EB000C04D3CE
:100C3000E41A65EB000517460E46241908F1010079
:100C40006D4180463428E3DDF91946EB0600091BA7
:100C5000A84103D24FF0FF32134601E000221346B1
:100C60001BEB070046EB0A51BDE8F04DFFF7C1BE94
:100C70003A2800D2303820F02002412A01D3A2F1D4
:100C80003700884201D34FF0FF30704770B58C18A1
:100C900010F8015B15F0070301D110F8013B2A1190
:100CA00006D110F8012B03E010F8016B01F8016B7D
:100CB0005B1EF9D12B0705D40023521E0DD401F879
:100CC000013BFAE710F8013BCB1A921C03E013F842
:100CD000015B01F8015B521EF9D5A142D8D3002077
:100CE00070BD000070B5044600688168C943C9073B
:100CF0001CD1816821F00101816000F0C1FD054631
:100D00000FE000BF00F0BCFD401B022809D9A06A1B
:100D100040F01000A062E06A40F00100E0620120B3
:100D200070BD20688068C043C007EBD0002070BD54
:100D3000F8B500260446009600688168C943C907D3
:100D400028D0816841F0010181601348134900688F
:100D5000B0FBF1F000E0401E00900028FBD100F055
:100D60008FFD054611E000BF00F08AFD401B022800
:100D70000BD9A06A40F01000A062E06A40F00100C8
:100D8000E06284F824600120F8BD20688068C043D8
:100D9000C007E9D10020F8BD2401002040420F0027
:100DA00010B50C4603F00AFF2146BDE8104001A033
:100DB00004F030BE0D0A5263766170703A2564000B
:100DC000FEE700001CB50A480168001D0068084ADB
:100DD00008321368064A074C083A12886280CDE947
:100DE000000105A22021084804F04EFF06481CBD62
:100DF000E8F7FF1F3C0000202530385825303858D0
:100E00002530385800000000000A002010B5104CB2
:100E1000606A1049000E087010210F48FFF723FA8E
:100E2000606A400103D50DA10B48FFF727FA606AFD
:100E3000000103D50BA10848FFF720FA606AC00043
:100E400005D5BDE8104009A10348FFF717BA10BD4A
:100E5000001002403C000020200A002050494E5F54
:100E600000000000504F525F000000005346545FE6
:100E700000000000014800F051BA0000EC1D002005
:100E800030B590F840500124AC40C56B6C600468EC
:100E900063604368102B036803D099600068C260E8
:100EA00030BD9A600068C16030BD704772B6FEE721
:100EB000F8B50024009490F824202546012A12D089
:100EC000012280F824204A681F23072A0DD20668D1
:100ED000776B521E02EB820293409F430B68934054
:100EE0001F43776319E00220F8BD06680D2A0AD275
:100EF000376BD21F02EB820293409F430B689340F3
:100F00001F43376309E0F76A0D3A02EB8202934010
:100F10009F430B6893401F43F7620A6807230668E4
:100F20000A2A0AD3F7680A3A02EB420293409F4327
:100F30008B6893401F43F76008E0376902EB420279
:100F400093409F438B6893401F4337610A68102A80
:100F500001D0112A20D1124B02689A4217D193680E
:100F60001B0219D4936843F40003936009681029A5
:100F700012D10C490C4A0968B1FBF2F101EB810175
:100F8000490000E0491E00910029FBD104E0816A7C
:100F900041F020018162012480F824502046F8BDF0
:100FA000002401402401002040420F000068C06C72
:100FB000704700002DE9F04104004FF000057FD09C
:100FC000A06A002628B9E66284F82460204600F072
:100FD00081F82046FFF786FEA16AC90600D420B139
:100FE000A06A40F01000A0626AE0A16A21F4885172
:100FF00041F00201A162334923688B42E16904D1C7
:10100000B1F5402F01D14FF40021277B4FF4807CB4
:1010100041EA470261680A43A168614508D0012995
:1010200006D0002194F814E0BEF1010F02D00AE0CE
:101030006146F7E7C7B1A76A47F02007A762E76AEA
:1010400047F00107E7625F6827F469470F435F6075
:10105000236899681C4F394011439960A168614524
:101060000BD0012909D00CE0DFF860E0A7690EEB96
:1010700047370F4347F40061E5E7218A0D05A5F5E1
:1010800080152168CB6A23F470032B43CB6221685F
:1010900089680F4B1940914208D1E662A16A21F09C
:1010A000020141F00101A162BDE8F081A06A20F0D7
:1010B000020040F01000A062E06A40F00100E0622F
:1010C0000120F1E7003C0140FDF7E1FF00E0FFFFF8
:1010D000FE0E1FFF00B585B0002100910191029125
:1010E000039100680E49884217D10E48816941F486
:1010F00000718161816901F400710491816941F09D
:10110000040181618069694600F0040004900320B5
:1011100000900190044800F0ADFA05B000BD000059
:1011200000240140001002400008014070B5044650
:1011300090F8240001280DD0012084F824002046D6
:10114000FFF7F6FD02004FF0000005D084F8240000
:10115000104670BD022070BDA16A40F20123994380
:1011600041F48071A1621F4D23681F49AB4218D121
:101170000E6816F4702F14D0A66A46F48016A66284
:101180000E68760505D5A66A26F4005646F4805604
:10119000A662A66AF6040AD5E66A26F00606E662A4
:1011A00006E0A66A26F48016A6625E68E9E7E062B9
:1011B00084F824006FF00200186020688368C3F38D
:1011C0004243072B05D1A84208D1096811F4702FBA
:1011D00004D0816841F480118160B9E7816841F4ED
:1011E000A001F9E700280140042401402DE9F05F47
:1011F00090F821100024022903D0042181630124E6
:1012000085E001680A6822F00E020A6001680A6837
:1012100022F001020A603F4E3E4FB215DFF8F4C0E3
:10122000DFF8F090DFF8ECA0DFF8E8B0DFF8E4E0FA
:101230000168783F13011502ACF1640CA9F1500963
:10124000AAF13C0AABF1280BAEF1140E4FF4801852
:10125000B14227D9B9420ED0614512D049451DD0BF
:10126000514518D0594518D0714501D1424615E075
:10127000294EB14201D1012210E0274E1436B1426D
:1012800001D110220AE0244E2836B14206D0224A6B
:101290003C32914201D11A4600E02A461E49091FFC
:1012A0000A602BE0B94213D0614517D0494522D0DE
:1012B00051451DD059451DD0714501D142461AE016
:1012C000B14202D14FF0807215E0134EB14201D10C
:1012D000012210E0104E1436B14201D110220AE072
:1012E0000D4E2836B14206D00B4A3C32914201D114
:1012F0001A4600E02A46074980394A60012180F8F1
:101300002110002180F82010416B01B18847204650
:10131000BDE8F09F80000240080402402DE9F05F24
:10132000C16B0A6801680B68046C4FF0040808FA86
:1013300004F8844D844E854FDFF814C2DFF8149210
:10134000DFF814A2DFF814B2DFF814E218EA020F93
:1013500065D05FEA437862D50A68920603D40A68CA
:1013600022F004020A60DFF8F0814FF48062016825
:1013700008F1140813011402414524D9A9420DD0E3
:10138000B1420FD0B9421AD0614515D0494515D0A8
:10139000514501D1120312E0594501D104220EE05A
:1013A000714501D140220AE06D4D1435A94206D0A5
:1013B0006B4A2832914201D11A4600E02246674921
:1013C000091F0A6029E0A94213D0B14215D0B942E1
:1013D00020D061451BD049451BD0514502D14FF467
:1013E000800217E0414502D14FF0806212E059457A
:1013F00001D104220EE0714501D140220AE0584D8E
:101400001435A94206D0564A2832914201D11A46D3
:1014100000E022464B4908394A60C16A71E04FF04A
:10142000020808FA04F818EA020F70D05FEA83781D
:101430006DD50A68920606D40A6822F00A020A608C
:10144000012180F82110DFF810814FF4007201684B
:1014500008F1140813011402414524D9A9420DD002
:10146000B1420FD0B9421AD0614515D0494515D0C7
:10147000514501D1120312E0594501D102220EE07B
:10148000714501D120220AE0354D1435A94206D01C
:10149000334A2832914201D11A4600E022462F49B0
:1014A000091F0A6029E0A94213D0B14215D0B94200
:1014B00020D061451BD049451BD0514502D14FF486
:1014C000001217E0414502D14FF0007212E0594579
:1014D00001D102220EE0714501D120220AE0204D07
:1014E0001435A94206D01E4A2832914201D11A462B
:1014F00000E02246134908394A60002180F8201094
:10150000816A00291CD0BDE8F05F0847FFE7082585
:10151000A540154214D01A0712D50A6822F00E020F
:101520000A6090F84020C36B012101FA02F25A6070
:10153000816380F82110002180F82010016BE0E722
:10154000BDE8F09F080002401C000240300002404D
:1015500044000240580002406C000240080402406F
:101560001C04024030B560B11A4B026814219A4243
:1015700009D2194B1344B3FBF1F1890001641749F7
:101580000AE0012030BD134B5B421344B3FBF1F181
:10159000890001640F490839C163022180F82110D4
:1015A000136843F6F0718B43F0E901142143D0E94D
:1015B00002452C4321430469214344692143846942
:1015C00021431943116000214163012242770177D1
:1015D000084630BD08040240F8FFFDBF000002408D
:1015E00070B5044690F82000002501280CD0012099
:1015F00084F8200094F821600020012E06D084F8A1
:1016000020000225284670BD022070BD022684F805
:101610002160A0632068066826F001060660204667
:10162000FFF72EFCE06A00282068016802D041F034
:101630000E0106E021F0040101602068016841F01C
:101640000A0101602068016841F001010160D9E7E9
:1016500070B5044600F014F90546601C02D0044839
:101660000078044400F00CF9401BA042FAD370BD8E
:10167000180100202DE9F84FDFF8C891002409F186
:10168000040A0AF1040B23460F270BF1040ED1E0E4
:101690000125A54006EA0502AA4276D1DFF8A8C1D5
:1016A0004E68A6EB0C0866452BD00DDC032E34D01B
:1016B00005DC36B3012E19D0022E2FD11BE0112EDE
:1016C00016D0122E2AD119E0B8F5881F19D006DCE1
:1016D000B8F5803F15D0B8F5801F1FD111E0B8F5DF
:1016E000001F0ED0B8F5041F18D10AE0CB6815E032
:1016F000CB681B1D12E0CB6808330FE0CB680C33BE
:101700000CE08B682BB1012B4FF0080303D045612F
:1017100004E0042302E0056100E00023FF2A01D871
:10172000064601E000F104064FEA840501D9A5F15F
:101730002005D6F8008007FA05FC28EA0C0803FA11
:1017400005F548EA0508C6F800804D68ED0070D53B
:101750003E4DAE6946F00106AE61AD6924F0030668
:1017600005F0010500953A4D06EB050CDCF8085034
:10177000A607360F07FA06F825EA0805DFF8D48031
:10178000404503D14FF0000825E052E0DFF8C88063
:10179000404502D14FF001081DE0DFF8C080404510
:1017A00002D14FF0020816E0DFF8B480404502D1C4
:1017B0004FF003080FE0DFF8AC80404502D14FF056
:1017C000040808E0DFF8A080404502D14FF005088A
:1017D00001E04FF0060808FA06F848EA0508CCF8D8
:1017E00008804D68D9F80060ED034D4601D51643D9
:1017F00000E096432E604D68DAF80060AD03554670
:1018000001D5164300E096432E604D68DBF800607A
:10181000ED025D4601D5164300E096432E604D680B
:10182000DEF80060AD02754601D5164300E0964330
:101830002E60641C0A681646E2407FF429AFBDE8BA
:10184000F88F000000040140000011100010024059
:101850000000014000080140000C01400010014060
:101860000014014000180140001C0140806808403D
:1018700000D0012070470AB1016170470904FBE7FD
:1018800001488068704700001801002070B504000E
:1018900025D094F83D00002520B984F83C5020461E
:1018A00000F030FC242084F83D002068016821F01D
:1018B000010101602068016841F400410160206875
:1018C000016821F40041016000F0F4FD4D4A6168B7
:1018D000914201D84C4900E04C49884201D2012094
:1018E00070BD4B492368B0FBF1F15E6826F03F06FE
:1018F0000E435E606368934206D94FF49673594372
:101900004FF47A73B1FBF3F12368491C1E6A26F089
:101910003F06314319626168914210D84900401E68
:10192000B0FBF1F2521CC2F30B02042A01D20420D4
:1019300022E0B0FBF1F0401CC0F30B001CE0A268F9
:10194000F2B301EBC10303EB0116431EB3FBF6F345
:101950005B1C43F480431B0549D092B301EBC102E9
:1019600002EB0111401EB0FBF1F0401CC0F30B0074
:1019700040F4804040F400402168CA694CF6FF738F
:101980009A431043C861D4E90710014320680268F4
:1019900022F0C00211430160D4E903010143206831
:1019A000826848F2FF339A4311438160D4E905010C
:1019B00008432168CA6822F0FF021043C86001E0B2
:1019C0000EE016E02068016841F001010160256425
:1019D000202084F83D00256384F83E50002070BD2F
:1019E00001EB4106431EB3FBF6F35B1CB3E701209A
:1019F000C2E701EB4101401EB0FBF1F0401CC0F317
:101A00000B00B7E7A086010080841E0000093D009E
:101A100040420F002DE9F84F0025DDF82890984648
:101A200017468A4604460095FFF72AFF064694F8B3
:101A30003D0020287AD119230122834920460096AF
:101A400001F06EFC0028F5D194F83C0001286DD01F
:101A5000012084F83C0020680168C90703D10168AF
:101A600041F0010101602068016821F4006101601A
:101A7000222084F83D00102084F83E00256467622F
:101A8000A4F82A80608D20857048E06233464A467B
:101A90005146204601F088FA00287DD1208DDFF8DC
:101AA000B081202768B1012814D00228206801687D
:101AB0001ED041F480610160206841698069009016
:101AC000B5E02068416981690091016841F40071C5
:101AD0000160ACE02068016821F48061016072B6A9
:101AE0002068416981690091016841F400710AE050
:101AF00041F40061016072B620684169816900911A
:101B0000016821F48061016062B690E0032868D822
:101B100001280CD002284B464FF0000241462046D7
:101B200000960FD001F0FCFBB0BB10E08AE032461B
:101B30004946204601F073FC70BB20680069616A69
:101B400008706BE001F0ECFB30BB72B634E020684B
:101B5000016821F48061016072B620680069616AE1
:101B60000870606A401C6062208D401E2085608D78
:101B7000401E6085374846F2A8110068B0FBF1F0BE
:101B8000C0EBC00000EB80000090401E009008D029
:101B900020684069C04300E029E040070CD5009868
:101BA000F3E744F8305F6773A573206940F02000C5
:101BB000206162B625731AE02068016841F4007163
:101BC000016020680069616A0870606A401C606298
:101BD000218D491E2185618D491E618562B621686E
:101BE0001AE032464946204601F019FC10B10120A6
:101BF000BDE8F88F20680069616A0870606A401C5F
:101C00006062218D491E2185618D491E6185216893
:101C10004A69D24352070AD409690170606A401CBC
:101C20006062208D401E2085608D401E6085208D65
:101C300000287FF46BAF84F83D7084F83E5084F840
:101C40003C50D5E70220D3E7020010000000FFFF60
:101C500004000100240100202DE9F84F1F469046A2
:101C60008A460446DDF82890FFF70AFE054694F8F8
:101C70003D0020287FD119230122404920460095AC
:101C800001F04EFB002876D194F83C00012872D078
:101C9000012084F83C0020680168C90703D101686D
:101CA00041F0010101602068016821F400610160D8
:101CB000212084F83D00102084F83E000026266490
:101CC000C4F824806785608D20852D48E0622B460E
:101CD0004A465146204601F0DDF990B92068416935
:101CE0008069009036E02A464946204601F0CAFB4A
:101CF00050B1206C042804D12068016841F40071BF
:101D000001600120BDE8F88F606A216800780861F1
:101D1000606A401C6062618D491E6185218D491E8B
:101D200089B2218522685369DB435B070BD451B12B
:101D300000781061606A401C6062608D401E6085A2
:101D4000208D401E20852A464946204601F0C2FAD1
:101D50000028CED1208D0028C5D154F83D0B016854
:101D600041F400710160202004F81E09E6776677CF
:101D70000020C7E7FFE70220C4E7000002001000D0
:101D80000000FFFF2DE9FF4F83B00025DDE910794A
:101D90009A4693460446DDF848800095FFF770FDAB
:101DA000064694F83D0020287CD11923012285495C
:101DB0002046009601F0B4FA0028F5D194F83C00D2
:101DC00001286FD0012084F83C0020680168C90711
:101DD00003D1016841F0010101602068016821F42C
:101DE00000610160222084F83D00402084F83E001C
:101DF00025646762A4F82A90608D20857248E062AD
:101E0000CDE9008653465A462046049901F090F9E0
:101E100000287DD1208DDFF8B491202768B10128FA
:101E200014D00228206801681ED041F4806101604E
:101E30002068416980690090B6E020684169816945
:101E40000091016841F400710160ADE02068016813
:101E500021F48061016072B6206841698169009156
:101E6000016841F400710AE041F40061016072B65A
:101E70002068416981690091016821F480610160F5
:101E800062B691E0032868D801280CD002284346A6
:101E90004FF000024946204600960FD001F040FA6C
:101EA000B0BB10E08BE032464146204601F0B7FA65
:101EB00070BB20680069616A08706CE001F030FA5C
:101EC00030BB72B634E02068016821F480610160A3
:101ED00072B620680069616A0870606A401C6062BE
:101EE000208D401E2085608D401E6085384846F25A
:101EF000A8110068B0FBF1F0C0EBC00000EB80005F
:101F00000090401E009008D020684069C04300E067
:101F100029E040070CD50098F3E744F8305F677379
:101F2000A573206940F02000206162B625731AE095
:101F30002068016841F40071016020680069616AED
:101F40000870606A401C6062218D491E2185618D88
:101F5000491E618562B621681BE032464146204633
:101F600001F05DFA18B1012007B0BDE8F08F2068DC
:101F70000069616A0870606A401C6062218D491EB8
:101F80002185618D491E618521684A69D2435207C6
:101F90000AD409690170606A401C6062208D401E8D
:101FA0002085608D401E6085208D00287FF46AAFFB
:101FB00084F83D7084F83E5084F83C50D4E7022009
:101FC000D2E70000020010000000FFFF0400010043
:101FD000240100202DE9FF4F83B09A46DDE91197D7
:101FE00093460446DDF84080FFF74AFC054694F826
:101FF0003D0020287FD11923012240492046009529
:1020000001F08EF9002876D194F83C00012872D0B6
:10201000012084F83C0020680168C90703D10168E9
:1020200041F0010101602068016821F40061016054
:10203000212084F83D00402084F83E0000262664DC
:10204000C4F82480A4F82A90608D20852C48E06292
:10205000CDE9007553465A462046049901F0E6F84A
:1020600070B930E02A463946204601F00BFA58B1E3
:10207000206C042804D12068016841F400710160DB
:10208000012007B0BDE8F08F606A21680078086120
:10209000606A401C6062218D491E89B22185628D73
:1020A000521E628522685369DB435B070BD469B11A
:1020B00000781061606A401C6062208D401E20859F
:1020C000608D401E6085208D0028CBD12A46394680
:1020D000204601F0FFF80028CAD154F83D0B0168F2
:1020E00041F400710160202004F81E09E67766774C
:1020F0000020C6E7FFE70220C3E70000020010004F
:102100000000FFFF10B586B00021009101910291FF
:10211000039100680F4988421AD10F4CA06940F022
:102120000800A061A069694600F008000490C02082
:10213000009012200190032003900848FFF79AFABC
:10214000E06940F40010E061E06900F400100490E0
:1021500006B010BD0054004000100240000C0140C9
:10216000024881680278114481607047180100209C
:10217000074810B5016841F010010160032000F02C
:102180007BF80F2000F006F800F024F8002010BDC6
:102190000020024070B50D4D04464FF47A71287846
:1021A000B1FBF0F00A490968B1FBF0F000F0A3FCC4
:1021B00048B9102C07D200222146501E00F03CF8EE
:1021C00000206C6070BD012070BD0000180100206F
:1021D000240100200F4808B5816941F001018161A7
:1021E000816901F001010091C16941F08051C16133
:1021F000C069002200F0805000900F21901E00F076
:102200001BF80548416821F0E06141F00071416030
:1022100008BD00000010024000000140002809DB5A
:1022200000F01F02012191404009800000F1E020F0
:10223000C0F8001170470000F0B40E4B1B680C464C
:10224000C3F30223C3F10705042D00D90425191D8A
:10225000072901D2002300E0DB1E012606FA05F162
:10226000491E214099409E40761E16403143F0BCE5
:1022700003F060BD0CED00E0064900F007020868BD
:102280004FF6FF03184040EA0220034A104308605B
:10229000704700000CED00E00000FA052DE9F8435E
:1022A00005460078354CC00754D0E0690026C000D0
:1022B00008D4E06940F08050E061E069012600F058
:1022C000805000902E480168C90512D401688046EC
:1022D00041F480710160FFF7D3FA074605E000BFC3
:1022E000FFF7CEFAC01B642823D8D8F80000C00539
:1022F000F6D5206A10F4407021D0A98801F440710D
:1023000081421CD0206A1F49012220F440700A60DB
:1023100000220A602062C00711D0FFF7B1FA074619
:1023200041F2883808E000BFFFF7AAFAC11B414517
:1023300002D90320BDE8F883206A8007F4D5206A1B
:10234000696820F44070084320621EB1E06920F003
:102350008050E0612878800705D56068A96820F47E
:102360004040084360602878C00605D56068696908
:1023700020F48000084360600020DBE7001002408A
:1023800000700040400442422DE9F0470F4605002E
:1023900061D0434E306800F00700B84209D230687F
:1023A00020F0070038433060306800F00700B84282
:1023B00051D128683B4C810712D5400703D560688E
:1023C00040F4E06060602878000703D5606840F45E
:1023D000605060606068A96820F0F00008436060A9
:1023E0002878C00728D06868012810D02168022802
:1023F00010D0890700292EDA616821F0030101431A
:102400006160FFF73DFA804641F288390DE02168AE
:102410008903EFE78901EDE7FFF732FAA0EB080146
:10242000494502D90320BDE8F0876068696800F07B
:102430000C00B0EB810FEFD1306800F00700B8421C
:102440000BD9306820F0070038433060306800F066
:102450000700B84201D00120E5E72878400705D5FC
:102460006068E96820F4E06008436060287800074D
:1024700006D56068296920F4605040EAC1006060B8
:1024800000F038F86168084AC1F30311515CC84094
:102490000649086006480068FFF77CFE0020C2E796
:1024A000002002400010024084BB000824010020EC
:1024B0001C0100200448054900684968044AC1F32A
:1024C0000221515CC84070472401002000100240E6
:1024D00094BB00080448054900684968044AC1F3F0
:1024E000C221515CC8407047240100200010024006
:1024F00094BB000812A185B00FC98DE80F0014A08D
:10250000144A006804905168134801F00C03042B2E
:1025100010D0082B0ED1C1F38343C9031DF803006B
:102520000AD5516804AAC1F34041515C0A4A50439C
:10253000B0FBF1F005B0704708494843FAE70000E6
:1025400002030405060708090A0B0C0D0E0F1010F4
:10255000010200000010024000127A0000093D0054
:102560002DE9F84F040070D02078C04DC00749D045
:102570006868C0F38100012807D06868C0F3810053
:10258000022809D16868C00306D52868800339D5B8
:1025900060680028E7D035E06068B0F5803F0BD078
:1025A00010B1B0F5A02F11D0286820F48030286039
:1025B000286820F4802002E0286840F480302860F9
:1025C000606890B1FFF75CF906460AE0286840F4BD
:1025D00080202860F0E700BFFFF752F9801B6428D5
:1025E00073D828688003F7D50CE0FFF749F9064651
:1025F00005E000BFFFF744F9801B6428F0D8286885
:102600008003F7D420789A4E80074FF001094FF0ED
:10261000000839D5686810F00C0F07D06868C0F35F
:102620008100022809D16868C00306D428688007A1
:1026300014D52069012808D110E02069B0B1C6F88E
:102640000090FFF71DF9074605E00AE1FFF718F9CA
:10265000C01B0228C4D828688007F7D5286861699C
:1026600020F0F80040EAC10028600DE0C6F80080C4
:10267000FFF706F9074604E0FFF702F9C01B02283E
:1026800023D828688007F7D4207800072CD579480C
:10269000A169D9B1C0F80090FFF7F2F8074604E04D
:1026A000FFF7EEF8C01B02280FD8686A8007F7D53D
:1026B00071484FF4FA510068B0FBF1F0009000BF90
:1026C0000098411E0091FAD20EE080E0C0F8008030
:1026D000FFF7D6F8074604E0FFF7D2F8C01B022840
:1026E00075D8686A8007F7D42078400760D5E86914
:1026F0000027C00008D4E86940F08050E861E8692C
:10270000012700F0805000905C480168C90513D48F
:102710000168834641F480710160FFF7B1F8824699
:1027200006E000BFFFF7ACF8A0EB0A0064284ED823
:10273000DBF80000C005F5D5E06801280AD008B133
:10274000052813D0286A20F001002862286A20F0AA
:10275000040002E0286A40F001002862E06841F2CB
:10276000883B98B1FFF78CF882460BE0286A40F06E
:1027700004002862EEE700BFFFF782F8A0EB0A0131
:1027800059455AD8286A8007F6D50CE0FFF778F843
:10279000824605E0FFF774F8A0EB0A0159454CD8D2
:1027A000286A8007F6D41FB1E86920F08050E861FC
:1027B000E06988B36968C1F38101022944D0022825
:1027C000C6F8608004D0FFF75BF8044638E034E0D8
:1027D000FFF756F8074604E0FFF752F8C01B02283F
:1027E0002BD828688001F7D4206AB0F5803F05D146
:1027F0006868A16820F4003008436860D4E90801E3
:102800000843696821F4741108436860C6F8609051
:10281000FFF736F8044606E025E000BFFFF730F882
:10282000001B022809D828688001F7D51BE000BFEB
:10283000FFF726F8001B022802D90320BDE8F88F15
:1028400028688001F4D40EE00128F7D06868226A75
:1028500000F48031914204D1616A00F47010884222
:1028600001D00120EAE70020E8E700000010024064
:1028700000004242800442422401002000700040D7
:1028800070B5040009D0606A002540B1256165611A
:10289000A56294F8510040B10CE0012070BD606861
:1028A000B0F5827FF4D0E561F2E784F8505020461D
:1028B00000F040F8022084F851002068016821F0FF
:1028C00040010160A088218900F4827001F4044174
:1028D0000843A18901F400610843217C01F0020151
:1028E0000843217D01F001010843218B01F40071AF
:1028F0000843217F01F03801084394F8201001F0CB
:1029000080010843218D01F40051084321680860CB
:10291000A069042101EA1040216848602068C1696B
:1029200021F40061C1616565012084F85100002037
:1029300070BD000000B585B00021009101910291A9
:10294000039100680F4988421AD10F48816941F408
:1029500080518161816901F480510491816941F064
:10296000040181618069694600F004000490A020A0
:10297000009002200190032003900448FEF77AFEA5
:1029800005B000BD003001400010024000080140C9
:102990002DE9F84F044690F8500000271D461646D2
:1029A000894601280DD04FF0010B84F850B0FEF796
:1029B00067FF804694F85100BA46012804D00227E8
:1029C00093E00220BDE8F88FB9F1000F73D0002E1C
:1029D00071D0032084F85100C4F854A0C4F830909A
:1029E000A686E686C4F838A0A4F83CA0A4F83EA0C9
:1029F000C4F844A0C4F840A0A068B0F5004F09D1C5
:102A00002068016821F0400101602068016841F4FC
:102A10008041016020680168490603D4016841F0E3
:102A200040010160E068B0F5006F606803D030B32A
:102A3000012E24D041E008B1012E1CD1206B216869
:102A40000088C86006E020688168890709D5216B85
:102A50000988C160206B801C2063E08E401EE086E8
:102A600009E0FEF70DFFA0EB0800A84202D3681CA6
:102A700001D031E07DB3E08E0028E4D120E0206B6E
:102A800021680078087306E020688168890709D505
:102A9000216B09780173206B401C2063E08E401E7F
:102AA000E0860AE0FEF7ECFEA0EB0800A84203D3A4
:102AB000681C02D010E017E06DB1E08E0028E3D171
:102AC00042462946204602F0B7FB08B12020606547
:102AD000A06818B106E0FFE7032706E02068C16898
:102AE00080680090606D00B1012784F851B084F8CF
:102AF00050A0384666E710B5401EB0F1807F01D384
:102B0000012010BD4FF0E02460610F21601703F039
:102B100011F90020A06107202061002010BD70473E
:102B200070B5026804461068D168536910F00F0F41
:102B300052D003F0010501F490762E435FD0C20716
:102B400005D0CA0503D5E26B42F00102E2634207F9
:102B500005D5DA0703D0E26B42F00202E263820796
:102B600005D5DA0703D0E26B42F00402E263020704
:102B700007D501F020022A4303D0E26B42F008029D
:102B8000E263E26B002A33D0800604D5880602D5C2
:102B9000204602F068FE20684069E16BC0F38010B7
:102BA000090700D428B3204602F046FE2068416998
:102BB00049061AD5416921F040014161606BA0B11D
:102BC0002D494163606BFEF711FB002810D0606B4C
:102BD000416BBDE870400847830610D58B060ED5C3
:102BE0002046BDE8704002F03EBE2046FFF797FF4A
:102BF00070BD2046FFF793FF0020E06370BD030621
:102C00002BD50B0629D594F839002128F6D1A068D8
:102C1000B0F5805F01D12069B0B1206A411C21620A
:102C2000216800784860E08C401E0004000CE084BD
:102C3000E4D12068C16821F08001C1602068C168CA
:102C400041F04001C16070BD206A0088C0F30800F7
:102C50005060206A801C2062E5E74006F3D54806F4
:102C6000F1D5D168204621F04001D160202184F8BF
:102C7000391000F080F970BD9957000870B5040054
:102C800004D094F83900002510B106E0012070BD91
:102C900084F83850204600F023F8242084F83900C6
:102CA0002068C16821F40051C160204602F022FE74
:102CB0002068016921F4904101612068416921F097
:102CC0002A0141612068C16841F40051C160E56397
:102CD000202084F8390084F83A00002070BD0000FC
:102CE000F0B585B000240094019402940394054645
:102CF00003684648DFF810C102210322444E07153D
:102D000063451AD1836943F480438361836903F483
:102D100080430493836943F00403836180690392D1
:102D200000F0040004900802CDE900016946304635
:102D3000FEF7A0FCCDE900741EE0DFF8D8C06345C3
:102D400021D1C36943F40033C361C36903F4003381
:102D50000493836943F0040383618069039200F064
:102D6000040004900420CDE9000169463046FEF7D6
:102D700081FC0820CDE90004694630460294FEF744
:102D800079FC05B0F0BD244EB342FAD1C36943F4D7
:102D90008023C361C36903F480230493836943F0F0
:102DA000080383618069CDE9007100F00800CDE976
:102DB00003201A4E69463046FEF75CFCF014CDE95C
:102DC0000004694630460294FEF754FC154E144840
:102DD000C6E900048020C6E9024020203461C6E92B
:102DE00005403046F461FEF7BDFB08B1FEF75EF822
:102DF0006E630022052127207562FFF71DFA272048
:102E0000FFF70CFABDE70000003801400010024057
:102E1000000801400044004000480040000C014010
:102E200030000240EC1D0020F8B5044690F83A004E
:102E300020283CD1C1B3BAB394F83800012836D069
:102E4000012084F83800A162A2850025E5632220D4
:102E500084F83A00636B17489862636B1648D8622F
:102E6000636B16481863606B134645630846666BD0
:102E7000216802463046091DFEF7B2FB2068016852
:102E80004168009184F83850C16841F48071C16094
:102E90002068416941F0010141612068416941F0C8
:102EA000400141610020F8BDFFE70120FBE702205F
:102EB000F9E70000F35700082F580008A957000849
:102EC000704770472DE9F843044690F839001F46D3
:102ED00016460D4620284CD1C5B1BEB194F8380035
:102EE000012846D0012084F838004FF00008C4F8CB
:102EF0003C80212084F83900FEF7C2FCA68481467C
:102F0000E684A068B0F5805F03D004E00120BDE84E
:102F1000F883206928B12E465FF0000584F83880D8
:102F20000EE00026FAE78021204602F03FFDA0B91E
:102F3000AEB116F8010B21684860E08C401EE084B9
:102F4000E08C4B464FF0000200970028EBD14FF089
:102F50004001204602F02AFD30B10320D7E735F8C2
:102F6000020BC0F30800E6E7202084F839000020B7
:102F7000CDE70220CBE77047FEE701684A69D243FC
:102F800052050FD46FF480624A61002140F8301F6F
:102F9000202242738173026942F0040202610173CC
:102FA00001207047002070472DE9F84F0446C06AA1
:102FB0001E4693460D4621680A6842F480620A6004
:102FC000082807D0012805D010F5803F02D0206BDB
:102FD000112804D12068016841F4807101604FF02C
:102FE00001195B46002249462046009600F098F9F8
:102FF0004FF4007840B120680068C00501D5C4F8DE
:1030000040800320BDE8F88F2069DFF884A0B0F588
:10301000804F0FD00620216800EAD51747F0F00056
:10302000086133465A460AF10601204600F0ACF921
:1030300058BB03E0E8B240F001001CE02168E8B2B0
:10304000086133465A465146204600F09DF9E0B9E2
:103050002068416981690091016841F480710160D3
:103060005B46002249462046009600F059F90028A8
:10307000C1D147F0F1002168086133465A465146F4
:10308000204600F081F90028BCD00120BAE70000FA
:1030900002000100F8B50446C06A1E460D461746F8
:1030A000082807D0012805D010F5803F02D0206BFA
:1030B000122804D12068016841F480710160134630
:1030C00000224FF001112046009600F029F940B18E
:1030D00020680068C00502D54FF40070206403200A
:1030E000F8BD2069B0F5804F0ED00620216800EAB7
:1030F000D51040F0F000086133463A460B492046AF
:1031000000F042F978B902E005F0FE0000E0E8B214
:1031100021680861054933463A46891F204600F078
:1031200033F90028DCD00120F8BD000008000100C0
:103130002DE9F84F0446006889460B9D01689846C2
:10314000174641F4806101602068016841F4807194
:10315000016000954FF0011B0022594620460A9B52
:1031600000F0DEF84FF4007A40B120680068C00536
:1031700001D5C4F840A00320BDE8F88F216809F00C
:10318000FE0008612B46284920460A9A00F0FCF808
:10319000F0BB20684169806900902A4620460A9960
:1031A00000F070F940B1206C04283AD12068016821
:1031B00041F40071016034E0FEB2B8F1010F09D0B2
:1031C0002168380A08612A4620460A9900F05AF90F
:1031D0000028E8D1206806612A4620460A9900F0B6
:1031E00051F90028DFD12068016841F48071016045
:1031F00000950022594620460A9B00F091F80028CD
:10320000B3D1216809F0FF0040F00100086100E03F
:1032100007E02B46044920460A9A00F0B5F800283A
:10322000AAD00120A8E70000020001002DE9F84320
:10323000044600680D46DDE9089701689846164681
:1032400041F4807101604B4600224FF0011120468D
:10325000009700F065F848B120680068C00502D505
:103260004FF4007020640320BDE8F883216805F066
:10327000FE0008613B464A461549204600F084F8A6
:1032800088B920684169806900903A4649462046DD
:1032900000F0F8F848B1206C042804D120680168D7
:1032A00041F4007101600120DEE7F5B2B8F1010FD1
:1032B00009D02168300A08613A464946204600F0A4
:1032C000E1F80028E7D1206805610020CCE7000084
:1032D0000200010070B516460D4604460DE020467A
:1032E000FFF74BFE08B1012070BD681C05D0FEF74A
:1032F000C7FA801BA84207D835B120684069C0438F
:103300004007ECD4002070BD002044F8300F20218D
:103310006173A073216941F0200121612073E2E70C
:103320002DE9F0471E4690460D460446C1F3074777
:10333000DDF8209008E0701C06D0FEF7A1FAA0EBA3
:103340000900B0420FD876B12068012F18D08069EB
:1033500025EA00000004000C14D000214145EAD009
:103360000020BDE8F087002044F8300F2021617371
:10337000A073216941F02001216120730120F0E751
:103380004069E5E70121E9E72DE9F0479A469146D2
:103390000E46044600254FF02008C1F3074725E0FC
:1033A00020684069C043400514D42068016841F496
:1033B0000071016021686FF480604861256384F8C2
:1033C0003D8084F83E50206C40F00400206484F876
:1033D0003C501FE0B9F1FF3F08D0FEF751FAA0EBD7
:1033E0000A0149450CD8B9F1000F09D02068012F16
:1033F00013D0806926EA00000004000C0BD0CFE750
:1034000044F8305F84F80D80A573206940F02000F7
:10341000206125730120BDE8F0874069EAE72DE9C6
:10342000F041002590460E460446202717E04069EB
:10343000C043C0060CD454F8301B6FF01000486134
:1034400044F810596777A577206A2062257717E03E
:10345000FEF716FAA0EB0800B04208D83EB120688B
:103460004169C9434906E2D40020BDE8F08144F82F
:10347000305F6773A573206940F0200020612573D9
:103480000120F2E770B516460D4604460DE02046D1
:10349000FFF773FD08B1012070BD681C05D0FEF771
:1034A000EFF9801BA84207D835B120684069C043B6
:1034B0000006ECD4002070BD002044F8300F20211D
:1034C0006173A073216941F0200121612073E2E75B
:1034D000F0B50C4D002305F10A061C4605F1050C5C
:1034E00016F1050720FA03FE5FEACE7E04D0EC5405
:1034F0000CF80310F254FC545B1CDBB2052BF1D327
:10350000F0BD00001500002070B50022074D1346E5
:1035100015F1050420FA02F6F60701D0A954A354C8
:10352000521CD2B2052AF5D370BD00001500002050
:10353000014614220148FCF77DBE00006000002017
:103540002DE9F041264DE0B30021264A0C4600BF8C
:1035500001EB410302EB8303491C1C605C6049B230
:103560009C600829F4DB0026334631460BE02C2F03
:103570002DD0202F2BD003EB430C02EB8C0C0CF83E
:103580000170491C761C875D0A2FF0D11548183050
:10359000FCF7C7FE687013491148C5F80240C5F82A
:1035A000064008222431801CFCF786FE0C481021BE
:1035B0002F30FCF758FE0B490948102230312F30CC
:1035C00000E001E0FCF778FE6878BDE8F08103EBED
:1035D000430702EB87077C5400215B1CD2E7000005
:1035E00046000020300F002010B5801DFCF799FE2A
:1035F0000149087010BD00004600002001460F225E
:103600000148FCF717BE00005000002010B502F082
:103610004DFA002000F004F8BDE8104000F008B8B2
:10362000024602210148FEF726B90000000C0140C5
:1036300070B5094D4FF48054002221462846FEF70C
:103640001AF94FF47A7003F0DDFB21462846BDE8F5
:1036500070400122FEF70FB9000C014001480078CC
:10366000704700004600002010B530B1012806D098
:1036700002280ED0032815D116E0052200E0022210
:10368000FF210220FFF724FF00210420FFF73CFF69
:1036900008E001210220FFF737FF0222FF2104206A
:1036A000FFF716FF002010BD01210220FFF72CFFBD
:1036B0000121EAE770B505461E4E0C46C00706D04C
:1036C000012C2BD0012201213046FEF7D4F8A807A7
:1036D00006D5012C24D0012202213046FEF7CBF87A
:1036E000680706D5012C1DD0012204213046FEF7C3
:1036F000C2F8280706D5012C16D001220821304631
:10370000FEF7B9F8E80613D54FF40041012C0DD0AF
:1037100000223046BDE87040FEF7ADB80022D2E787
:103720000022D9E70022E0E70022E7E70122F0E7E4
:1037300070BD00000010014010B51C4C40F6B830C0
:1037400060810020FFF790FFE078072826D2DFE8AD
:1037500000F0270404040B131D0015A000F032FB39
:1037600014A002F057F91BE00120FFF759FF14A045
:1037700002F050F9642007E00020FFF751FF14A089
:1037800002F048F94FF47A70608109E0FFF750FFCA
:1037900013A002F03FF94FF4FA60F5E70020E07063
:1037A000E078401CE070608910BD000088000020B7
:1037B000000000000D0A53656E64204154000000B3
:1037C0000D0A4C54455F4241545F4F46460000008D
:1037D0000D0A4C54455F4241545F4F4E00000000BB
:1037E0000D0A507772506C73000000002DE9F04113
:1037F0000120FFF739FF214C4FF47A77C826E07893
:103800007D000E282FD2DFE800F007091115171CE4
:103810001E20222426282A22A78128E018A000F0B2
:10382000D1FAC82003F0EEFA16A000E017A000F0CD
:10383000C9FAF1E717A000E012A000F0C3FAA581D1
:1038400015E016A0F9E717A0F7E718A0F5E7A6819D
:103850000DE018A0F1E718A002E019A000E01AA0FE
:1038600000F0B0FAF3E70020E0700220A070E078EA
:10387000401CE070A089BDE8F081000088000020B5
:10388000453100002B474D52000000002B434349B7
:10389000440000002B47534E000000002B474D49C9
:1038A000000000002B474D4D000000002B474F4902
:1038B00000000000490000002B434C49503D3100FE
:1038C00053303D31000000002B435245473D32004C
:1038D00010B50C4C40F6B830E081E078052808D2ED
:1038E000DFE800F0030303030B0007A000F06AFA0F
:1038F00003E00520E0700020A070E078401CE0703C
:10390000E08910BD880000202B4350494E3F000045
:10391000F8B52A4C4FF4FA6629A02682E17802F025
:1039200079F8E07864250B283CD2DFE800F006083F
:103930000D0F1318351835183500258238E0022090
:10394000FFF792FE23A002E024A000E025A000F0F3
:1039500039FAF2E725A000F035FA268228E001F0D6
:1039600077FB0068FCF7BEFC78B101F071FB45689D
:1039700001F06EFB036820A280212748009502F029
:1039800083F9254800F01EFA02E024A002F042F874
:1039900041F2883020820BE025A000F013FA4FF4AA
:1039A0007A70F7E70020E070A07024A002F032F8EF
:1039B000E078401CE070208AF8BD000088000020FC
:1039C0000D0A206D6F64756C65335F737465703AB2
:1039D000256420002B43434C4B3F00002B435245B2
:1039E000473F00002B435351000000002B51494337
:1039F0004C4F53453D3000002B51494F50454E3DF3
:103A0000312C302C22544350222C222573222C2579
:103A1000732C302C31000000900F00200D0A204E36
:103A20006F20736572766572206970200000000057
:103A30002B51495354415445000000000D0A2064A5
:103A4000656661756C742036200000007CB52D4CD5
:103A50004FF47A7060820320FFF706FE0025257080
:103A6000E078092848D2DFE800F04705070B303E30
:103A70003E3E440024A000E025A000F0A3F93BE076
:103A800001F0D6FB0088B8B10C2123A000F090FE15
:103A900001F0CEFB038824A20721684602F0F4F867
:103AA0006846FCF71FFC81B2684600F081FE0221E7
:103AB0001EA000F07DFE1FE001202070E078401C79
:103AC000E07042F21070608216E001F0B1FB0688EF
:103AD00001F0AAFB314600F06BFE01F0A9FB058066
:103AE00040F6B830EFE712A000F06CF941F28830F0
:103AF000E9E7E5700320A070E078401CE070608A80
:103B00007CBD0000880000202B43535100000000C2
:103B10002B435245473F000041542B514953454EDA
:103B2000443D302C00000000256400000D0A000018
:103B30002B514953544154450000000010B5044630
:103B4000FCF7D0FBC1B2204602F022F830B906489B
:103B5000417829B1022181700021C170002010BD7F
:103B6000012181704170F7E7880000202DE9F043C2
:103B700089B00446FCF7B6FBC1B2204602F008F853
:103B80004FF000086D46022861D0032848D0042871
:103B900002D0052840D137E001F0EAFF81464E46C9
:103BA000042408E0052003F02DF901F0E1FF641E74
:103BB0000646E4B201D3002EF4D00024FCF730FB1B
:103BC0000746684601F09AFF9DF800103868405C8F
:103BD00010F0380F03D1641CE4B2062CF1D3012499
:103BE000281901F08BFF641CE4B20F2CF8D305F800
:103BF000048010216846FFF701FD6B4632464946B6
:103C00001DA001F007FF07E01521E01DFFF790FC64
:103C1000E11D20A001F0FEFE002009B0BDE8F08308
:103C20000024FCF7FDFA064608A801F067FF9DF89E
:103C300020003168095C11F0BA0F05D02855641CCA
:103C4000E4B2202CF0D315E005F8048012E0002443
:103C5000FCF7E6FA064608A801F050FF9DF82000A0
:103C60003168095C11F0BA0FEED02855641CE4B23B
:103C7000202CF0D30120D0E70D0A2067657420695D
:103C80006D65693A2025642D2D2D25642D2D2D255A
:103C9000313673000D0A2067657420636369643AE6
:103CA000202532307300000010B50446FCF71AFBE3
:103CB000C1B2204601F06CFF062801D0002010BDE3
:103CC0000348032181700021C170012010BD000054
:103CD0008800002010B50446FCF704FBC1B2204662
:103CE00001F056FF0C4C0838072812D2DFE800F02C
:103CF000040A1111080A04000420A0700020E070DA
:103D0000012010BD05A000F05DF80220A070062083
:103D1000E070002010BD0000880000202B514943B6
:103D20004C4F53453D30000070B50D460646FCF73C
:103D3000D9FAC1B2304601F02BFF164CC01F0F2834
:103D400020D2DFE800F0211F1F1F1F250F080A25C2
:103D50001F251F1B1600012002E00320A070082071
:103D6000E07015E00220A0700BA000F02BF80520F9
:103D7000F6E7E9B23046FFF737FC09E0294630465E
:103D800000F0CCFC002070BDE9B23046FFF7D8FB54
:103D9000012070BD880000202B5149434C4F5345F2
:103DA0003D30000005480178012906D180780428BB
:103DB00003D10348006807F05DB870478800002011
:103DC0001001002010B50446022108A000F0F0FC0C
:103DD0002046FCF787FA81B2204600F0E9FCBDE8F6
:103DE0001040022102A000F0E3BC0000415400009A
:103DF0000D0A00001FB50124002003A98DF80C0056
:103E0000CDE90014C820029075222346D12107482D
:103E1000FDF7B8FF064928B99DF80C00682801D1C4
:103E200081F8284091F8280004B010BD801C0020C3
:103E3000D40900201A4910B591F828100120012951
:103E40002CD180216B2000F007F9642002F0DAFF0A
:103E500000216B2000F000F9032000F0D5F80020CD
:103E600000F0AEF8FA2002F0CDFF00216A2000F049
:103E7000F3F80021382000F0EFF80021232000F0B3
:103E8000EBF88021372000F0E7F801216B2000F0EB
:103E9000E3F800216C2000F0DFF8002010BD0000E6
:103EA000D40900201CB501246B4606223B21682062
:103EB00000F014F868B9BDF80000002441BA0648C3
:103EC0000183BDF8021049BA4183BDF8041049BA14
:103ED000818320461CBD0000D40900200EB5C820F7
:103EE000CDE9003202900A460123D1210348FDF7B3
:103EF00049FF002800D001200EBD0000801C0020DA
:103F00001CB501246B46062243216820FFF7E6FF1B
:103F100068B9BDF80000002441BA0648C183BDF865
:103F2000021049BA0184BDF8041049BA4184204600
:103F30001CBD0000D409002070B5FFF7E1FF05208B
:103F400002F060FFFFF7AEFF1B4E3088FCF7C5FBA9
:103F50001A4C0546B4F91800FCF7B6FB2946FCF7E5
:103F6000EDF92060B4F91A00FCF7AEFB2946FCF726
:103F7000E5F96060B4F91C00FCF7A6FB2946FCF7E4
:103F8000DDF9A060B4F91E00FCF79EFB71680D46D8
:103F9000FCF7D4F9E060B4F92000FCF795FB294662
:103FA000FCF7CCF92061B4F92200FCF78DFB29461F
:103FB000FCF7C4F9606170BD34000020D409002012
:103FC00010B50121044603281AD8E006010E1C2072
:103FD00000F042F801460B4834B1012C07D0022C06
:103FE00008D0032C0CD108E04FF4804207E04FF4D6
:103FF000005204E04FF4805201E04FF4006202806E
:10400000084610BD3400002010B5012104460328E5
:1040100016D8E006010E1B2000F01EF801460948E4
:1040200034B1012C06D0022C06D0032C08D105E0B7
:10403000054A04E0054A02E0054A00E0054A4260FC
:10404000084610BD340000206F1203436F128342F4
:104050006F1203426F12834103B583B0C82301225C
:1040600004A98DE80E0013460246D0210348FDF74F
:10407000B1FF002800D0012005B000BD801C002049
:104080002DE9FC41074615460E460024684600937C
:1040900004F004FF60F30704C4F3C000307020098B
:1040A000387001A9009800F0DDF80099019A0144E8
:1040B00000910A44511A022904DB684604F0F4FE18
:1040C00028800120BDE8FC812DE9FC410746002441
:1040D0000E4625466846009204F0E0FE0146204662
:1040E00061F307000009022819D101A9009800F026
:1040F000B9F8009905460844019900900144081A4E
:1041000002280CDB684604F0C9FE60F3070404F0E3
:1041100001003870684604F0C1FE30700125284661
:10412000BDE8FC812DE9FC5F8046DDE90EA000249E
:10413000CDE90004994617460E462546DDF834B011
:10414000684604F0ABFE60F30704200903282CD175
:10415000C4F3C00188F80010C4F34100306004F0DB
:104160000100387001A9009800F07CF8009905461C
:104170000844019900904418224669460C9804F0BE
:104180009CFE90B10098201A0FD43068002804DDFE
:10419000684604F089FEA9F800000098211ACAF8C0
:1041A000001000990125CBF800102846BDE8FC9FBF
:1041B0002DE9FC4781460A98002400909A4616464D
:1041C00088462546684604F069FE0146204661F3AC
:1041D00007000009092826D101A9009800F042F83B
:1041E000009905460844019900904718381A02289A
:1041F00019DB684604F058FEA9F8000034600EE0B0
:104200003168414502DD4FF0FF350CE0684604F0AF
:1042100045FE31688B00491C31604AF80300009864
:10422000B842EDD301252846BDE8FC87F8B5012545
:1042300000240E4607460C60641C042C0FDC012190
:104240006846B84701280AD19DF80000316800F09F
:104250007F0202FB0511ED0131600006ECD420461F
:10426000F8BD0000024A10600248FFF7DFBF0000FF
:10427000FC0000209567000810B503460020CA170F
:1042800001EB526424F07F02891ACAB2E1110029BD
:1042900002DD00BF42F080021A5400F10100EEDCA2
:1042A00010BD0000401C802801DA401C7047B0F5AA
:1042B000804F01DA801C70470349884201DAC01C34
:1042C0007047001D70470000FFFF1F00F8B5002475
:1042D000069E05460090042901DAA01EF8BD62F38F
:1042E000071463F3C304062A24F0060000D1801CDF
:1042F000C1B2684606F002FB02210098FFF7BCFF3E
:104300000099084400903146684606F0FDFA00988E
:10431000401BF8BD2DE9F843074600908846144637
:104320000025104600F082F88146FFF7BBFF4045AC
:1043300002DDA81EBDE8F8832E46314666F307016C
:104340006846103106F0DAFA49460098FFF794FF04
:10435000009908440090207A04281DD02FA16846B7
:1043600006F0B8FA0321684606F0C8FAA07E66F3A4
:10437000070560F34105E07E08B145F004056807D4
:1043800007D594F83D0060F3C40594F83C0060F351
:104390004515206C40B905E022A1684606F09AFA5E
:1043A0000421E0E7A06C08B145F08005E06C08B995
:1043B000606D08B145F040052946684606F09EFA52
:1043C000218B684606F0A0FA04F10C0168460EC97C
:1043D00006F0A9FAE07E68B12434684694E80E003D
:1043E000243C06F0A0FA3034684694E80E00303CD5
:1043F00006F099FA280605D504F1400168460EC971
:1044000006F091FA680605D54C34684694E80E002B
:1044100006F089FA0098C01B8CE700004D514973E3
:10442000647000004D5154540000000070B5044603
:10443000007A0025032802D0042802D002E00C25CF
:1044400000E00A2504F10C0007C800F09FF80544BD
:10445000E07EAD1C78B1243494E80700243C00F0E1
:1044600095F83034064694E80700303C00F08EF8AA
:10447000304405442D1D206C08B9A16C29B1D4E944
:10448000111200F083F80544AD1CE06C08B9616DB1
:1044900029B1D4E9141200F079F80544AD1C28467E
:1044A00070BD0C2200F059B808B500230092042218
:1044B000FFF70CFF08BD2DE9FC5F1C46129ECDE9FD
:1044C0000060DDF838B09046DDF830A0DDE90F235C
:1044D000894607465946204600F030F80546FFF762
:1044E000E1FE484503DD6FF00100BDE8FC9F30218F
:1044F00068F3C30164F342016AF3000101A806F006
:10450000FDF929460198FFF7B7FE0199084401908B
:10451000DDE90F23594601A806F005FA002C03DD5A
:1045200001A80D9906F0F0F9324611990198FBF7B0
:1045300081FE019830440190C01BD6E770B50E464D
:10454000114604461A463046049D00F01FF82844E0
:10455000801C002C00DD801C70BD38B50023044693
:104560000090022901DA981E38BD194663F307014D
:1045700062F30711684606F0C1F900210098FFF7C1
:104580007BFE009908440090001B38BD10B510B1A7
:10459000FBF7A8FE0146084610BD00003EB500240A
:1045A00010480094019402940D49846001600473E2
:1045B0000475012505614FF460214460C161FCF779
:1045C000F9FC08B172B6FEE7CDE900456946054839
:1045D0000294FCF76DFC002801D072B6FEE73EBDE8
:1045E00000240140501C00202DE9F04786B0002433
:1045F00035480094019402940394816941F01001BC
:104600008161816901F010010491816941F020010B
:104610008161816901F020010491816941F0040107
:104620008161816901F004010491816941F008010F
:1046300081618069DFF8948000F008004EF20F0578
:104640000490002229464046FDF715F9DFF88090D6
:10465000002250214846FDF70EF9DFF878A041F21C
:104660000207002239465046FDF705F9009502265B
:1046700001250396CDE9015469464046FCF7FAFF4F
:104680005020CDE90005CDE9024669464846FCF7D1
:10469000F1FF3020CDE90004694640460294FCF762
:1046A000E9FFCDE90054694650460294FCF7E2FF69
:1046B00000970396CDE9015469465046FCF7DAFFAE
:1046C00006B0BDE8F0870000001002400010014075
:1046D00000080140000C01400E4810B50C49016073
:1046E0004FF48271416000218160C1604FF400721B
:1046F0000161C0E90512C1610162416281620A2162
:10470000C162FEF7BDF8002801D072B6FEE710BD09
:1047100000300140D41C0020FEE700002DE9F041EC
:104720001130FBF7FEFD1C4C80B2208302F034FBFD
:1047300007002FD00020E082208B002821D901F033
:1047400017FA05461BE000260CE0E08A384401F029
:10475000D5F9E08A401C80B2E082218B884203D2E6
:10476000761CB6B2AE42F0D3E08A218B884208D2E2
:1047700001F0FEF90546014608A001F04BF9002DB5
:10478000E1D1E18A3846FCF70BFB3846BDE8F04141
:1047900002F0ECB9BDE8F081880000200D0A207518
:1047A0006E726561645F6C656E3A2564000000009E
:1047B0000A4601464FF47A730148FEF783BB0000B6
:1047C000AC1D002000B5F7B05822224961A8FBF7C4
:1047D00031FD802121A8FBF746FDFCF7F3FA0246E4
:1047E0001DA121A801F068FA21A8649024A071906D
:1047F000802101A8FBF737FD802141A8FBF733FD9D
:10480000FCF7E0FA024623A0009025A326A101A808
:1048100001F052FA01A8FBF765FD01462020009047
:104820002BA341AA01A804F0CEFB41A8749031A0AB
:1048300001F0F0F861AA4FF488613148FFF76AFD92
:1048400081B23048002241812D4800F07DFD77B0D3
:1048500000BD0000A0B30008252E3234737C7365C0
:10486000637572656D6F64653D332C7369676E6D3A
:104870006574686F643D686D6163736861317C0065
:1048800078755F3031266936337A726C6C77587080
:104890004F0000006936337A726C6C7758704F00A5
:1048A00078755F3031000000636C69656E7449642F
:1048B000252E3234736465766963654E616D6525B6
:1048C0007370726F647563744B65792573000000B3
:1048D00031663665643862626530373066663665E3
:1048E0006466363034373261353666323031663898
:1048F000000000000D0A4C6F672052657100000037
:1049000094050020000000202DE9F04100F0A4FBF8
:10491000FFF712FB01F088FF064601464CA001F0AC
:1049200079F84FA001F088FF024654A1304601F00B
:1049300051FF01F079FF05462A4652A1304601F0A9
:1049400049FF524F0020394601F05CFF024650A15A
:10495000284601F03FFF51488078FBF7D4FE01F074
:1049600051FF02464EA1284601F034FF4E4C20680C
:10497000FBF709FF01F046FF02464CA1284601F073
:1049800029FF6068FBF7FFFE01F03CFF02464AA1E9
:10499000284601F01FFF01F047FF0446224649A1C7
:1049A000284601F017FF4A484A4901F02BFF02460A
:1049B00049A1204601F00EFF4A484B4901F022FF71
:1049C00002464AA1204601F005FF0020394601F0C9
:1049D00019FF024648A1204601F0FCFE4B48FCF7B7
:1049E000E5FAFBF790FE01F00DFF024648A12846CC
:1049F00001F0F0FE484C206880F00040FBF7C3FE59
:104A000001F000FF024645A1284601F0E3FE606880
:104A100080F00040FBF7B7FE01F0F4FE024641A132
:104A2000284601F0D7FEA06880F00040FBF7ABFEFF
:104A300001F0E8FE02463DA1284601F0CBFE3348D6
:104A4000FCF774FB3146BDE8F041032000F072B87A
:104A50000D0A207075625F6A736F6E3A20255000F0
:104A60007468696E672E6576656E742E70726F70ED
:104A7000657274792E706F73740000006D657468D0
:104A80006F640000706172616D7300000000F03FA0
:104A9000576F726B537769746368000000000020E1
:104AA0004C65645F737473002C00002054656D7056
:104AB000657261747572650048756D6964697479B1
:104AC0000000000047656F4C6F636174696F6E0092
:104AD00067D2A6EA1E9E5A406C6F6E676974756451
:104AE0006500000052B7B3AF3CA03D406C617469F3
:104AF0007475646500000000436F6F7264696E61D5
:104B0000746553797374656D00000000501C0020BB
:104B10004C69676874000000D4090020417869730B
:104B20005F580000417869735F59000041786973EC
:104B30005F5A00002DE9F0411C4888B0884690E893
:104B4000E000084601F0FCFE194CE060404601F030
:104B500081FEE068FBF7C6FB02461648E168FBF7FA
:104B600069FBE068FBF7BEFB80B220811149CDE90B
:104B7000051002A8012380E8E000A088411CA18064
:104B80000021CDE900100A464FF488610A48FFF77A
:104B900092FC6081E06801F0E9FF618908B00022C1
:104BA000BDE8F041044800F0CFBB0000F8B30008B6
:104BB0000000002094010020940500202DE9F04120
:104BC00090B04FF000080446CDF8288000784546A4
:104BD0000E4660F30705601C0AA9FFF743FB314648
:104BE000204600F039FF280902273B4D04282BD02E
:104BF00004DC022808D003286AD136E0092814D042
:104C00000D2865D135A01BE033462246694601A830
:104C1000FFF75AFA01285BD19DF8000018B132A0C5
:104C200000F0F8FE54E034A00AE08DE850010121C4
:104C300004AB02AA03A8FFF7BBFA012848D131A0B0
:104C400000F0E8FE2F7043E0234601AA03A902A862
:104C50000096FFF715FA01283AD1BDF80410E98053
:104C60002F702BA000F0D6FE32E002AACDF81C80F7
:104C7000CDF8208005A8CDF8248082E8510006A94F
:104C800007A8CDE900010BAB0EAA0CA90DA8FFF7F0
:104C900049FA01281CD10C9801280CD1BDF82C2010
:104CA0004FF488611E48FFF7FFFB81B26981002243
:104CB0001B4800F049FB1BA0059900F0ABFEDDE9A5
:104CC00005121BA000F0A6FEDDE9051000F034F887
:104CD00010B00020BDE8F081000000200D0A205037
:104CE000696E675F4F4B00000D0A4C6F672066616D
:104CF000696C6564200000000D0A4C6F67204F4B03
:104D0000000000000D0A537562204F4B2000000088
:104D10000D0A205075625F6F6B3A202564200000F9
:104D2000940500200D0A5263763A256400000000C5
:104D30000D0A252E2A73000070B5054601F0CCFD42
:104D400004001AD02A460FA1022000F049F80FA152
:104D5000204601F0A3FD054601F0F2FD01460DA03D
:104D600000F058FE0DA1284601F098FD28B1017D04
:104D70000C4881700820FEF7C7FB204601F06AFD51
:104D8000002070BD252E3136730000007061726105
:104D90006D7300000D0A2573000000004C65645F10
:104DA000737473000000002003488078032801D347
:104DB000012070470020704788000020FEE710B5F2
:104DC000B0300C46C0B200F01FF9102040EA1410B9
:104DD00000F01AF904F00F00BDE8104000F014B91B
:104DE0000FB411212DE9F04F87B004466846002624
:104DF000824612AB119A00F073FF4FF0020868462A
:104E0000FBF770FA00F0FF09B01E00EB44000690BB
:104E1000701E00EB440B324C2CE000BF9AF80000EF
:104E200041462038C7B20698C0B2FFF7C8FF002538
:104E300005EB0710205C00F0F9F86D1CEDB2082DB1
:104E4000F6D30BF0FF004146FFF7B9FF5FF0000516
:104E500005EB07102044007A00F0E8F86D1CEDB275
:104E6000082DF5D308F10800761C0AF1010A00F0BC
:104E7000FF08F6B248464E4501D2102ECED3064664
:104E800026E006980027C0B24146FFF798FF0025AC
:104E900005EB0710205C00F0C9F86D1CEDB2082D81
:104EA000F6D30BF0FF004146FFF789FF5FF00005E6
:104EB00005EB07102044007A00F0B8F86D1CEDB245
:104EC000082DF5D308F10800761C00F0FF08F6B2B3
:104ED000102ED6D307B0BDE8F00F5DF814FB00002C
:104EE00044B4000830B53A4885B0816941F0040106
:104EF00081618069374D00F0040004900022502148
:104F00002846FCF7B8FC50200124CDE9000402201B
:104F1000039069462846FCF7ADFB00F05FF8AE2031
:104F200000F072F8202000F06FF8102000F06CF80C
:104F3000B02000F069F8A12000F066F8C82000F069
:104F400063F8002000F060F8102000F05DF84020C9
:104F500000F05AF8812000F057F87F2000F054F854
:104F6000A62000F051F8A82000F04EF83F2000F0F5
:104F70004BF8A42000F048F8D32000F045F80020BA
:104F800000F042F8D52000F03FF8F02000F03CF8A7
:104F9000D92000F039F8222000F036F8DA2000F0AD
:104FA00033F8122000F030F8DB2000F02DF820203C
:104FB00000F02AF88D2000F027F8142000F024F8E3
:104FC000AF2000F021F80448047005B030BD0000A7
:104FD00000100240000801402900002010B5094CD3
:104FE000002240212046FCF746FC142001F00AFF75
:104FF000012240212046FCF73EFCBDE810400A207B
:1050000001F000BF0008014001B500221021054851
:10501000FCF731FC0223012269460348FDF7B8FC86
:10502000002008BD00080140D41C002001B5012269
:1050300010210548FCF71FFC0223012269460348A2
:10504000FDF7A6FC002008BD00080140D41C00208C
:1050500000487047F40000201FB500208DF80C00B8
:1050600000F036F80120FCF7F3FA0021E32000F00D
:10507000A5F8154C20604620FCF7EAFA0021E5204F
:1050800000F09CF860601920FCF7E2FA00F020F8CC
:105090001920FCF7DDFA0121C82203A88DE80700DA
:1050A0000B46E62280210948FCF794FF0120FCF71B
:1050B000CFFA00F00DF80120FCF7CAFA00F01EF854
:1050C0000120FCF7C5FA1FBD2C000020801C002029
:1050D0001FB500208DF80C000121C82203A88DE81F
:1050E00007000B46E72281210348FCF74BFE9DF8A1
:1050F0000C0004B010BD0000801C00200EB5002084
:10510000C8210090CDE901010123FE22802102483F
:10511000FCF760FF0EBD0000801C002010B520F0E1
:105120000300FBF7F0FA064A064BFBF7ECF9002206
:10513000054BFBF7E2F9BDE81040FBF767BB000049
:105140007644CF7701405F3F0000184010B520F053
:105150000300FBF7D8FA064A064BFBF7D4F9064AD8
:10516000064BFBF729F9BDE81040FBF74FBB0000E9
:10517000D7A3703D0AF7653FCDCCCCCCCC6C47C0F3
:10518000F0B500231C4640F231160FE0055D6B4080
:1051900008251F0602D586EA430300E05B006D1E6A
:1051A000DBB215F0FF05F4D1641CE4B28C42EDD300
:1051B000934201D00120F0BD0020F0BD73B582B054
:1051C0000C46C8260025012302AA80211548009616
:1051D000FCF742FD5020FCF73BFA032301AA802193
:1051E00010480096FCF716FC2A46022101A8FFF79A
:1051F000C7FF9DF805009DF8041000EB01209DF805
:10520000081080B2E32909D0FFF788FF054614B1E2
:10521000FBF786FA208004B0284670BDFFF796FFA2
:10522000F4E70000801C0020004870475014002064
:1052300000487047E800002038B50B46009204464D
:105240000022802100F008F8002804D0606D40F0B2
:1052500020006065032038BD2DE9F8431E469146C5
:1052600088460446089DFCF70BFB401B351AFCF7EB
:1052700007FB074625480068C0F3CB30684338E099
:10528000701C37D0FCF7FCFAC01BA84203D215B142
:10529000009860B32CE02068416821F0E001416093
:1052A0006068B0F5827F0BD1A068B0F5004F02D0E6
:1052B000B0F5806F04D12068016821F040010160E1
:1052C000A06AB0F5005F09D12068016821F400519F
:1052D00001602068016841F400510160012084F8F8
:1052E0005100002084F850000320BDE8F883002519
:1052F000401E00902068816838EA010004D0002137
:105300004945BDD10020F0E70121F9E72401002043
:1053100006488178042907D1032181700421C170D6
:105320000348006805F0A6BD704700008800002013
:105330001001002003488078042801D00020704725
:10534000012070478800002010B50C460A4601462F
:105350000448FAF76FFF04480480FEF723FD00209D
:1053600010BD000050140020E800002070B50E466B
:1053700015460A2440211948FAF775FF18480021FC
:1053800040F8021F41603046FAF7ACFF402803D2D4
:105390003046FAF7A7FF00E04020024631460F48AA
:1053A000FAF78AFF0E4808222946801CFAF784FF84
:1053B000FFF7AEFF4FF47A7507E000BFFFF7BAFFC3
:1053C000012805D0284601F01DFD641EE4B2F5D287
:1053D0000CB1002070BD012070BD00001014002031
:1053E000E800002010B5FCF7BBFE05F023FE012805
:1053F00003D0BDE8104005F005BB10BD30B595B039
:1054000028216846FAF72FFF14210AA8FAF72BFF84
:1054100018210FA8FAF727FF01210804CDE9001091
:105420000025029502240491CDE907404FF4E010D5
:1054300009906846FDF794F808B172B6FEE70F20B0
:10544000CDE90A048020CDE90C0502210AA80E95B9
:10545000FCF79AFF08B172B6FEE74FF48040119056
:105460000F940FA8FCF71AFF002801D072B6FEE7D0
:1054700015B030BD7047000008B5FBF7C7FCFFF75B
:1054800031FD3DA10120FFF7ABFC40A241A102206C
:10549000FFF7A6FC40A10320FFF7A2FC43A10420D4
:1054A000FFF79EFCFEF7A6FC4FF0140210B10D2191
:1054B00043A001E00E2146A000F0ACFA4848494C58
:1054C000002590F828004FF4FA6658B1FEF7B2FCB8
:1054D00040B91422112144A000F09CFA02E03046A9
:1054E00001F090FCFFF760FC0028F8D0FEF7B6F85A
:1054F000024642A10320FFF773FCE28841A1042089
:10550000FFF76EFC207802280BD0012818D001206C
:1055100020703FA240A14DA0FFF728FFFFF752F9EE
:1055200025E005F095FD0090257049A000F072FA85
:10553000FFF7EAF941F28831684605F0C5F8D5E78A
:10554000257046A000F066FA6078401CC0B260701A
:10555000032801D9657025704FF488614248FEF731
:10556000A0FF81B2618100223F48FFF7EDFE304687
:1055700001F048FCBAE700005256636F6E74726F18
:105580006C6C657256372E303900000078755F30CC
:1055900031000000257300003333333333333333AA
:1055A0003333333333333333000000003434343493
:1055B000343434343434343434343434000000007B
:1055C0004D5055363035303A204F6B0D0A000000F3
:1055D0004D5055363035303A204572720D0A000074
:1055E000D4090020000000204D5055363035305F82
:1055F000496E6974204F6B0D0A0000005273736985
:105600003A25640053657152763A25640000000023
:1056100031383833000000006936337A726C6C77A9
:1056200058704F2E696F742D61732D6D7174742EC7
:10563000636E2D7368616E676861692E616C69794C
:10564000756E63732E636F6D00000000544350004D
:105650000D0A207075623131310000000D0A506969
:105660006E672052657100009405002000242146D9
:105670001F20FEF71FF8012505FA04F6F0B20121FC
:10568000FEF718F8C82001F0BDFBF0B20021FEF7CC
:1056900011F8641CE4B2052CEED30522FF21012091
:1056A000FDF716FFDFF86480A8F1050708F105098A
:1056B0007E1F642001F0A6FB01F080FA0024385D13
:1056C000B8B118F80420A2B119F804305B1CDBB2A1
:1056D00009F8043093420CD3325D82F001030022BA
:1056E000335509F80420FF2803D0D90701D1401E03
:1056F0003855305D00F0010105FA04F0C0B2FDF745
:10570000D9FF641CE4B2052CD9D3D2E71F000020D6
:10571000FDF77CFF1C4C0025607968B184F80550CA
:1057200000F01AFA01280ED065711748A1783830B8
:1057300050F82100804724E005F08AFCE061A08A4F
:1057400001F060FBECE7257108E000BF00F054FABF
:105750006179084360712079401C207100F0EEF9F6
:10576000064600F00FFA8642F0D1002000F0FAF968
:1057700005F06EFCE169401A2062A18A8842CBD212
:10578000081AA082C8E7000088000020FFF76EBF5B
:10579000FFF7BEBFFFF770BE10B5406A0021C1859C
:1057A000C184FDF7BCF910BD70B5446A206840693A
:1057B00094F83910C0F3C0100025212904D118B184
:1057C000E584204600F046F82068406994F83A10D5
:1057D000C0F38010222904D118B1E585204600F0DD
:1057E0002BF8E06B40F01000E0632046FDF797F9DE
:1057F00070BD10B50146406A09680968890613D46E
:105800000021C1850168CA6822F48072CA600168FB
:105810004A6922F001024A6101684A6922F04002A5
:105820004A61202180F83A10FDF74AFB10BD10B5FF
:10583000406AFDF746FB10BD0168CA6822F4907209
:10584000CA6001684A6922F001024A61202180F899
:105850003A1070470168CA6822F0C002CA6020216D
:1058600080F83910704710B590F83A10222901D00D
:10587000022010BD82684FF480539A4201D1016921
:1058800021B1816A9A421BD04AB10AE00268816A5A
:105890005268C2F308020A80816A891C08E0026922
:1058A00072B10268526802F07F020A70816A491C74
:1058B0008162C18D491E0904090CC18503D016E01F
:1058C00002685268F1E70168CA6822F02002CA60E3
:1058D0000168CA6822F48072CA6001684A6922F0CD
:1058E00001024A61202180F83A10FDF7E9FA002010
:1058F00010BD000070B5044600680169E26821F43B
:105900004051114301612169A0680843616908435E
:105910002168CA6841F20C639A430243CA60206856
:105920004169A26921F44071114341611E49206817
:10593000884202D1FCF7CEFD01E0FCF7BBFD00EB95
:10594000C00101EB0012606864218000B2FBF0F33B
:10595000B3FBF1F36FF018067343B2FBF0F5B2FB43
:10596000F0F605EB8305322303EB0515B5FBF1F5E6
:10597000B6FBF1F605F0F00505EB0615B2FBF0F607
:10598000B2FBF0F0B0FBF1F06FF01802504306EB01
:10599000800003EB0010B0FBF1F0216800F00F0075
:1059A0002844886070BD0000003801402DE9F041B6
:1059B000984617460E460446069D1DE0681C1BD0FF
:1059C0002DB1FBF75DFFA0EB0800A84214D92068B9
:1059D000C16821F4D071C1602068416921F00101E2
:1059E0004161202084F8390084F83A00002084F8CE
:1059F00038000320BDE8F0812068006836EA000026
:105A000004D00020B842D9D00020F3E70120F9E704
:105A1000704700000FB470B50D4C4FF4807605ADA3
:105A200031462046FAF71FFC2B4631462046049AA1
:105A300000F056F92046FAF755FC82B24FF47A731B
:105A400021460448FDF73EFA70BC5DF814FB0000E7
:105A5000300A00202C1D00200020704710B503489C
:105A6000FDF75EF8BDE8104000F002B8AC1D002064
:105A70000B4808B500680168C943C9060ED401681F
:105A80004068009007480178491C01700649096880
:105A90004968C1F5806141800121417008BD000065
:105AA000AC1D002040000020EC1D002010B5094C6A
:105AB0002068C16841F01001C1604FF4806206495E
:105AC0002046FDF7B1F92068416921F001014161EB
:105AD00010BD0000AC1D0020300B0020044810B5A4
